{
  "contractName": "election",
  "abi": [
    {
      "inputs": [
        {
          "internalType": "uint256",
          "name": "contestant",
          "type": "uint256"
        }
      ],
      "name": "contestVote",
      "outputs": [],
      "stateMutability": "nonpayable",
      "type": "function"
    },
    {
      "inputs": [],
      "name": "viewVotes",
      "outputs": [
        {
          "internalType": "uint256",
          "name": "",
          "type": "uint256"
        },
        {
          "internalType": "uint256",
          "name": "",
          "type": "uint256"
        },
        {
          "internalType": "uint256",
          "name": "",
          "type": "uint256"
        }
      ],
      "stateMutability": "view",
      "type": "function",
      "constant": true
    }
  ],
  "bytecode": "0x608060405234801561001057600080fd5b506102f9806100206000396000f3fe608060405234801561001057600080fd5b50600436106100365760003560e01c806313b687771461003b578063ef2fd54d14610057575b600080fd5b610055600480360381019061005091906101ed565b610077565b005b61005f61019a565b60405161006e93929190610229565b60405180910390f35b600360003373ffffffffffffffffffffffffffffffffffffffff1673ffffffffffffffffffffffffffffffffffffffff16815260200190815260200160002060009054906101000a900460ff16156100ce57600080fd5b600181036100f45760016000808282546100e8919061028f565b9250508190555061013f565b6002810361011a57600180600082825461010e919061028f565b9250508190555061013e565b6003810361013d57600160026000828254610135919061028f565b925050819055505b5b5b6001600360003373ffffffffffffffffffffffffffffffffffffffff1673ffffffffffffffffffffffffffffffffffffffff16815260200190815260200160002060006101000a81548160ff02191690831515021790555050565b60008060008054600154600254925092509250909192565b600080fd5b6000819050919050565b6101ca816101b7565b81146101d557600080fd5b50565b6000813590506101e7816101c1565b92915050565b600060208284031215610203576102026101b2565b5b6000610211848285016101d8565b91505092915050565b610223816101b7565b82525050565b600060608201905061023e600083018661021a565b61024b602083018561021a565b610258604083018461021a565b949350505050565b7f4e487b7100000000000000000000000000000000000000000000000000000000600052601160045260246000fd5b600061029a826101b7565b91506102a5836101b7565b92508282019050808211156102bd576102bc610260565b5b9291505056fea2646970667358221220295ea37d2f9fdb4ebedbdf4d8b9c6ba9822ef2f02d07df511c7d1edbbc2b9be764736f6c63430008130033",
  "immutableReferences": {},
  "source": "// SPDX-License-Identifier: MIT\npragma solidity >=0.4.0 <0.9.0;\n\ncontract election{\n    \n    uint votes1; // BJP\n    uint votes2; // TDP + JSP\n    uint votes3; // YSCRP\n\n    mapping (address=>bool) _voters;\n    // mapping specific address to boolean data type\n\n    function contestVote(uint contestant) public {\n        require(!_voters[msg.sender]); // verifying that whether i've voted or not\n\n        if(contestant==1){\n            votes1+=1;\n        } else if(contestant==2){\n            votes2+=1;\n        } else if(contestant==3){\n            votes3+=1;\n        }\n        _voters[msg.sender]=true; \n        // i'm telling the blockchain that this user has been participated in polling\n    }\n\n    function viewVotes() public view returns(uint,uint,uint) {\n        return (votes1,votes2,votes3);\n    }\n}\n\n",
  "sourcePath": "/Users/ms/Desktop/smart-contract-demo/contracts/election.sol",
  "compiler": {
    "name": "solc",
    "version": "0.8.19+commit.7dd6d404.Emscripten.clang"
  },
  "schemaVersion": "3.4.16",
  "updatedAt": "2023-10-04T12:46:08.128Z",
  "networkType": "ethereum",
  "devdoc": {
    "kind": "dev",
    "methods": {},
    "version": 1
  },
  "userdoc": {
    "kind": "user",
    "methods": {},
    "version": 1
  }
}